:1000000016EF00F0EA6A0B0EE96EEF500EE0010EFB
:10001000016E006A002EFED7012EFBD74A0E006E3D
:10002000002EFED700D0EF2EF2D7000CF86AD09E3B
:10003000EA6AE96AC180C182C184C196010E066E76
:10004000076E086A096A000E956EFF0E936E000E29
:10005000946E076A81B0072A075248E106C08CFFF8
:10006000020E0A6EFA0E0B6ECDDF0A2EFBD7095078
:10007000640811E0946A8B6AA60E006E002EFED70B
:100080000000946AFF0E8B6EA60E006E002EFED747
:100090000000092AECD7010E076E066E086A0850A8
:1000A000080824E00950640811E0946A8B6AA60EDF
:1000B000006E002EFED70000946AFF0E8B6EA60E17
:1000C000006E002EFED70000092AECD706C08CFF78
:1000D000D890063606C08CFF020E0A6EFA0E0B6E22
:1000E00091DF0A2EFBD7096A082AD9D7B2D70300B5
:020000040030CA
:0E00000000210E0E000181000FC00FE00F4026
:00000001FF
;PIC18F452
;CRC=1C8E  CREATED="30-nov.-12 16:56"
