:1000000017EF00F0EA6A080EE96EEF500EE0010EFD
:10001000016E006A002EFED7012EFBD74A0E006E3D
:10002000002EFED700D0EF2EF2D73EEF00F0F86A98
:10003000D09EEA6AE96AC180C182C184C196010E7C
:10004000066E076EFF0E936E3F0E956E400E8C6E21
:10005000076A81B0072A075211E1065003E0010A3E
:1000600006E009D0010E066E800E8C6E04D0066A82
:10007000400E8C6E00D00A0E086EC4D7076A81B09D
:0A008000072A0752FBE0E4D7030053
:020000040030CA
:0E00000000210E0E000181000FC00FE00F4026
:00000001FF
;PIC18F452
;CRC=9589  CREATED="30-nov.-12 15:38"
