:100000002AEF00F0EA6A060EE96EEF500EE0010EEC
:10001000016E006A002EFED7012EFBD74A0E006E3D
:10002000002EFED700D0EF2EF2D739EF00F0150EDC
:10003000075E0EE3EA6A070EE96EFC0EEF16D89033
:10004000EF32EF32EF5004E001D00000EF2EFDD789
:100050003EEF00F0F86AD09EEA6AE96AC180C18288
:10006000C184C196FB0E946EFB0E8B6E010E066E64
:10007000C9D7020E066EF70E076ED9D7062EFBD72C
:10008000FF0E8B6EA60E006E002EFED70000ECD782
:0200900003006B
:020000040030CA
:0E00000000210E0E000181000FC00FE00F4026
:00000001FF
;PIC18F452
;CRC=929F  CREATED="30-nov.-12 09:35"
